:020000040C00EE
:100000000008001001020008B1020008B102000857
:10001000B1020008B1020008B102000800000000AF
:10002000000000000000000000000000B102000815
:10003000B102000800000000B1020008B903000886
:10004000B1020008B1020008B1020008B1020008C4
:10005000B1020008B1020008B1020008B1020008B4
:10006000B1020008000000000000000000000000D5
:10007000B102000800000000B1020008B10200084F
:10008000B1020008B1020008B1020008B102000884
:10009000B1020008B1020008B1020008B102000874
:1000A000B1020008B1020008B1020008B102000864
:1000B000B1020008B1020008B1020008B102000854
:1000C000B1020008B1020008B1020008B102000844
:1000D000B1020008B1020008B1020008B102000834
:1000E000B1020008B1020008B1020008B102000824
:1000F000B1020008B1020008B1020008B102000814
:10010000B1020008B1020008B1020008B102000803
:10011000B1020008B1020008B1020008B1020008F3
:10012000B1020008B1020008B1020008B1020008E3
:10013000B1020008B1020008B1020008B1020008D3
:10014000B1020008B1020008B1020008B1020008C3
:10015000B1020008B1020008B1020008B1020008B3
:10016000000000000000000000000000000000008F
:10017000B1020008B1020008B1020008B102000893
:10018000B1020008B1020008B1020008B102000883
:10019000B1020008B1020008B1020008B102000873
:1001A000B1020008B1020008B1020008B102000863
:1001B000B1020008B1020008B1020008B102000853
:1001C000B1020008B1020008B1020008B102000843
:1001D000B1020008B1020008B102000800000000EE
:1001E000B1020008B1020008B1020008650B000866
:1001F000B102000800000000B10200080000000089
:10020000DFF88CD023488047234C244DAC4209DAD8
:1002100021686268A368043BA2BFC858D050FAE7BF
:100220000C34F3E71E4B1F4CA34208DA19685A68D6
:100230000020043AA4BF8850FBE70833F4E71A48CB
:1002400080471A48804700006C6B000C00000020BB
:10025000100700007C72000C00000030000000005D
:100260006C6B000C00080010000000006C6B000CB0
:100270000008001000000000100700203C0A0000E9
:1002800000000030000E0000000800100000000018
:1002900000080010616300084802000878020008A6
:1002A00078020008900200086D6700083904000811
:1002B000FEE7000080B483B000AF03463960FB71F5
:1002C00097F90730002B0ADB3B68DAB20C4997F943
:1002D00007309200D2B20B4483F800230AE03B6857
:1002E000DAB20849FB7903F00F03043B9200D2B263
:1002F0000B441A7600BF0C37BD465DF8047B70478F
:1003000000E100E000ED00E080B582B000AF786071
:100310007B68013BB3F1807F01D301230FE00A4AE0
:100320007B68013B53603F214FF0FF30FFF7C2FF76
:10033000054B00229A60044B07221A6000231846DE
:100340000837BD4680BD00BF10E000E080B483B038
:1003500000AF78600B46FB70FB7801229A407B6807
:100360005A6000BF0C37BD465DF8047B704780B40F
:1003700083B000AF78600B46FB70FB784FF480329F
:100380009A407B685A6000BF0C37BD465DF8047B1D
:100390007047000080B500AF054B1B68054AA2FB03
:1003A00003239B091846FFF7AFFF00BF80BD00BFC6
:1003B000C0FF0020D34D621080B400AF044B1B6817
:1003C0000133034A136000BFBD465DF8047B7047EC
:1003D0001007002080B487B000AF786039603B68B8
:1003E000002B02DC4FF0FF331FE000233B617B68F2
:1003F0001B68FB6001237B6112E07B699B007A68CC
:1004000013441B68FA689A4207D27B699B007A689A
:1004100013441B68FB607B693B617B6901337B6133
:100420007A693B689A42E8DB3B6918461C37BD464F
:100430005DF8047B7047000080B582B000AF802279
:1004400001210D4802F026F9802200210A4802F01D
:1004500021F900F091FBFFF79DFF00237B6002E094
:100460007B6801337B607B68044A9342F8DD044873
:1004700002F092FBFBE700BF00810248FF2C310134
:10048000BC02002080B586B000AFF860B9603B6068
:100490001346FB713B683B613B6A08221A807D4B27
:1004A0001B78052B00F23C8201A252F823F000BF1A
:1004B000210900083F050008C9040008D506000806
:1004C00041060008E5050008734B1B78002B03D19B
:1004D000724B02221A7009E06F4B1B78002B05D07B
:1004E0006D4B1B780133DAB26C4B1A706A4B1B7878
:1004F0007B610FE06A4B1A686A487B696A49DB00D6
:100500000344D2000A4492E8030083E803007B69B5
:1005100001337B61614B1B781A467B699342E9DBAF
:100520005E4B1B785F4A6149DB0013440A4692E840
:10053000030083E80300574B01221A70F0E1574B88
:100540001A785B4B1B789A422DD35A4B1B78002BA1
:1005500012D03B6900221A703B6900225A703B6935
:1005600000229A70534B00221A70514B1B780133B2
:10057000DAB24F4B1A70D0E14D4B1B78494ADB0081
:1005800013445A793B691A703B6900225A70484BF0
:100590001B78444ADB0013441A793B699A70454B37
:1005A00001221A70B9E1424B1B781A463B4B1B786B
:1005B00001339A4240F0B1813D4B00221A703E4B0C
:1005C00000221A703D4B1B683D4A1360314B0522D7
:1005D0001A703C4B1B78002B00F09F812D4B0022A2
:1005E0001A709AE1374B1B78002B03D0294B03225A
:1005F0001A7095E1304B1B78002B00F09081324B44
:1006000019682F4B1A68264B1B688A1A2F4941F824
:100610002320234B1B680133214A1360264B002201
:100620001A701F4B1B68532B03DC1A4B02221A70E3
:1006300075E1184B04221A70194B00221A606EE102
:1006400054212248FFF7C6FE0346214A1360204B7F
:100650001A68114B1B7813481349DB000344D2007E
:100660000A4492E8030083E803000B4B1B78013334
:10067000DAB2094B1A700A4B00221A60064B1B783B
:10068000142B03D1034B00221A7049E1014B0222C3
:100690001A7045E1B8020020180B0020140B00204E
:1006A0006C080020740800201800002000000020C2
:1006B000190B00201A0B0020B9020020100700209F
:1006C00014070020150B0020180700201C0700202D
:1006D00070080020954A964BE03393E8030082E8C7
:1006E0000300924B924A0833E83292E8030083E811
:1006F00003008E4B8F4A103392E8030083E8030017
:100700008A4B8B4A183302F5267292E8030083E87D
:100710000300864B864A203302F5847292E8030078
:1007200083E80300814B824A283302F5A07292E8E5
:10073000030083E803007D4B7D4A303302F5987255
:1007400092E8030083E80300784B794A3833F032AB
:1007500092E8030083E80300744B754A403302F5C6
:100760000C7292E8030083E80300704B704A483330
:10077000F03292E8030083E803006C4B6C4A50337C
:10078000E03292E8030083E80300684B684A58337C
:1007900002F5847292E8030083E80300634B644A25
:1007A000603302F5A07292E8030083E803005F4B18
:1007B000604A683392E8030083E803005B4B5E4ABB
:1007C000703392E8030083E80300584B584A7833AB
:1007D00002F5B07292E8030083E80300534B544AD9
:1007E0008033203292E8030083E803004F4B504AE5
:1007F0008833B83292E8030083E803004B4B4D4A3C
:10080000903392E8030083E80300484B484A98334A
:1008100002F5947292E8030083E80300434B444AD4
:10082000A033403292E8030083E803003F4B404A84
:10083000A83392E8030083E803003C4B3C4AB03302
:10084000703292E8030083E80300384B3A4AB83329
:1008500092E8030083E80300344B354AC03302F5C5
:10086000167292E8030083E80300304B304AC83325
:1008700002F5F47292E8030083E803002B4B2C4A44
:10088000D03302F5D87292E8030083E80300274BC7
:10089000274AD83302F5E87292E8030083E80300A0
:1008A000224B234AE03302F5F47292E8030083E816
:1008B00003001E4B1E4AE83302F5D07292E8030093
:1008C00083E80300194B1A4AF03302F5E07292E80C
:1008D000030083E80300154B154AF83302F5E07274
:1008E00092E8030083E80300104B114A03F580737C
:1008F00002F5DC7292E8030083E803000B4B0F4A19
:1009000003F5847392E8030083E803000C4B212273
:100910001A700C4B01221A7002E000BF00E000BF09
:10092000012318461837BD4680BD00BF740800205B
:100930001800002008000020100000200000002007
:10094000140B0020B802002080B586B000AFF8601C
:100950007B600B46FB721346BB727B687B617B69D5
:100960001B7803F00103002B0BD001211648FFF781
:10097000EDFC164B01221A70154B1B68154A1360CB
:1009800006E001211048FFF7F2FC104B00221A701C
:100990007B691B7803F00203002B0AD000210A4870
:1009A000FFF7D4FC0C4B01221A700C4B01221A7079
:1009B00006E000210448FFF7DAFC074B00221A701A
:1009C00000BF1837BD4680BD00810248B902002033
:1009D0001007002018070020160B0020150B002020
:1009E00080B500AF0A4800F049FC01F00DF9402144
:1009F000022001F02DF9042001F044F8002000F05D
:100A000049FF012001F098F805F0FAFD00BF80BD14
:100A1000F469000880B400AF044BDB681B0A03F0E4
:100A200007031846BD465DF8047B704700ED00E003
:100A300080B483B000AF0346FB7197F90730002BF9
:100A40000BDBFB7903F01F02074997F907305B09BD
:100A5000012000FA02F241F8232000BF0C37BD4606
:100A60005DF8047B704700BF00E100E080B483B014
:100A700000AF0346FB7197F90730002B0CDBFB79C5
:100A800003F01F02074997F907305B09012000FABC
:100A900002F2603341F8232000BF0C37BD465DF8F9
:100AA000047B704700E100E080B483B000AF0346F0
:100AB0003960FB7197F90730002B0ADB3B68DAB22B
:100AC0000C4997F907309200D2B20B4483F8002307
:100AD0000AE03B68DAB20849FB7903F00F03043BF4
:100AE0009200D2B20B441A7600BF0C37BD465DF8B7
:100AF000047B704700E100E000ED00E080B489B0C5
:100B000000AFF860B9607A60FB6803F00703FB612F
:100B1000FB69C3F10703062B28BF0623BB61FB69F2
:100B20000633062B02D9FB69013B00E000237B6101
:100B30004FF0FF32BB6902FA03F3DA43BB681A4095
:100B40007B699A404FF0FF317B6901FA03F3D94387
:100B50007B680B40134318462437BD465DF8047B81
:100B60007047000080B500AF024804F021FB00BFD1
:100B700080BD00BFD402002080B500AF0E4803F056
:100B800015FCFFF747FF034600223F211846FFF7F9
:100B9000B5FF034619466B20FFF786FF6B20FFF772
:100BA00065FF6B20FFF744FF044B1B68DB68984729
:100BB00000BF00BF80BD00BFD4020020B00B0020EA
:100BC00080B400AF00BFBD465DF8047B704780B4C1
:100BD00000AF00BFBD465DF8047B704780B500AF35
:100BE000094B93F83E3103F00103DBB2002B08D030
:100BF000FFF7C2FF044A92F83E316FF3000382F818
:100C00003E3100BF80BD00BFB00B002080B582B078
:100C100000AF0123FB7108220D49812003F03CFC49
:100C20000C4801F091FF03461A46FB791340002B54
:100C300014BF01230023FB71074A92F83E31F97972
:100C400061F3000382F83E3100BF0837BD4680BD26
:100C5000240B0020BC020020B00B002080B500AFA8
:100C6000024801F07BFD00BF80BD00BFBC02002038
:100C700080B483B000AF7860012318460C37BD46BE
:100C80005DF8047B7047000080B485B000AF034678
:100C90003A60FB800B467B71FB881B0A9BB27B7220
:100CA000FB883B720023FB6000237B817B7A013B46
:100CB000212B76D801A252F823F000BF450D000881
:100CC0004F0D0008590D0008A30D0008A30D0008E2
:100CD000A30D0008A30D0008A30D0008A30D000834
:100CE000A30D0008A30D0008A30D0008A30D000824
:100CF000A30D0008A30D0008A30D0008A30D000814
:100D0000A30D0008A30D0008A30D0008A30D000803
:100D1000A30D0008A30D0008A30D0008A30D0008F3
:100D2000A30D0008A30D0008A30D0008A30D0008E3
:100D3000A30D0008A30D0008A30D00088D0D0008E9
:100D4000970D00081C4BFB6012237B8129E01B4B95
:100D5000FB6022237B8124E03B7A022B10D0022B04
:100D60001EDC002B02D0012B05D019E0144BFB60D8
:100D700004237B8109E0134BFB6050237B8104E05B
:100D8000114BFB6048237B8100BF09E00F4BFB60E8
:100D900009237B8105E00E4BFB603F237B8100E054
:100DA00000BF3B68FA681A607B8918461437BD4655
:100DB0005DF8047B704700BF486A00085C6A000861
:100DC000806A0008886A0008DC6A00086E6A000809
:100DD000086A000880B400AF044B9B6903F48033B9
:100DE0001846BD465DF8047B704700BF00460050C2
:100DF00080B400AF044B5B6A03F440331846BD4631
:100E00005DF8047B704700BF0046005080B400AF1F
:100E1000054B9B6ADBB203F00303DBB21846BD4609
:100E20005DF8047B704700BF0046005080B400AFFF
:100E3000064B1A68064B1B6903F0010302FA03F321
:100E40001846BD465DF8047B704700BFC0FF002018
:100E50000046005080B400AF034B1B681846BD46E7
:100E60005DF8047B704700BFC0FF002080B400AF76
:100E7000034BD3F8C4301846BD465DF8047B704779
:100E80000040005080B584B000AF786005F0B8FB3A
:100E90000C4B1B680C4AA2FB03239A0C7B6802FBD9
:100EA00003F37B600023FB6003E000BFFB680133BA
:100EB000FB60FA687B689A42F7D300BF00BF103727
:100EC000BD4680BDC0FF002083DE1B4380B483B0DD
:100ED00000AF7860054B9A6804497B6813438B60C8
:100EE00000BF0C37BD465DF8047B7047744000506E
:100EF00080B483B000AF7860064B9A687B68DB43B0
:100F0000044913408B6000BF0C37BD465DF8047B7D
:100F1000704700BF7440005080B483B000AF786069
:100F2000054B1A6904497B6813430B6100BF0C37FA
:100F3000BD465DF8047B70477440005080B400AF3C
:100F4000034B5B681846BD465DF8047B704700BFE5
:100F50007440005080B483B000AF7860044A7B686E
:100F6000D36000BF0C37BD465DF8047B704700BFFF
:100F70007440005080B400AF044B1B6903F47063ED
:100F80001846BD465DF8047B704700BF0040005026
:100F900080B483B000AF0346FB80044AFB88136132
:100FA00000BF0C37BD465DF8047B70470040005021
:100FB00080B483B000AF7860054A7B680A339B0039
:100FC00013445B6818460C37BD465DF8047B7047D8
:100FD0000040005080B483B000AF78603960064AAA
:100FE0007B680A339B0013443A685A6000BF0C3791
:100FF000BD465DF8047B70470040005080B483B06C
:1010000000AF786039600A4A7B68283352F82320A1
:1010100001213B6801FA03F305491A437B68283331
:1010200041F8232000BF0C37BD465DF8047B7047B4
:101030000040005080B483B000AF786039600B4A44
:101040007B68283352F8232001213B6801FA03F31F
:10105000DB4306491A407B68283341F8232000BF50
:101060000C37BD465DF8047B704700BF0040005060
:1010700080B483B000AF786039607B681A013B6848
:10108000DB021343054A43F40803C2F88C3000BF67
:101090000C37BD465DF8047B704700BF0040005030
:1010A00080B400AF064BD3F88C30054A23F001031F
:1010B000C2F88C3000BFBD465DF8047B704700BFAE
:1010C0000040005080B400AF064BD3F88C30054A86
:1010D00043F00103C2F88C3000BFBD465DF8047BCD
:1010E000704700BF0040005080B400AF074BD3F8FA
:1010F0008C3003F00103002B0CBF01230023DBB273
:101100001846BD465DF8047B704700BF00400050A4
:1011100080B400AF074BD3F8903003F48043002B2A
:1011200014BF01230023DBB21846BD465DF8047BE3
:10113000704700BF0040005080B582B000AF002370
:10114000FB71FFF7D1FF034683F00103DBB2002BF5
:1011500001D00123FB7100F031F80346002B01D0D0
:101160000223FB71064BD3F88C30054A43F002038F
:10117000C2F88C30FB7918460837BD4680BD00BFE9
:101180000040005080B582B000AFFFF7ADFF0346CE
:1011900083F00103DBB2002B03D06FF000437B60D0
:1011A00005E0054BD3F89030C3F309037B607B68FF
:1011B00018460837BD4680BD0040005080B400AFDF
:1011C000074BD3F8903003F40043002B14BF0123E6
:1011D0000023DBB21846BD465DF8047B704700BFB4
:1011E0000040005080B485B000AF786039607B6803
:1011F0001B0403F47023FB60FB6843F00103FB60F6
:101200000B4A3B68C2F8CC30094AFB68C2F8C830C8
:1012100000BF074BD3F8C43003F40053002BF8D1C0
:1012200000BF00BF1437BD465DF8047B704700BFA8
:101230000040005080B485B000AF78607B681B042C
:1012400003F47023FB60FB6823F00103FB600A4A90
:10125000FB68C2F8C83000BF074BD3F8C43003F4B2
:101260000053002BF8D1044BD3F8CC301846143778
:10127000BD465DF8047B70470040005090B585B0D6
:1012800002AF7860002000F0F1FA00F07FFD7B688B
:10129000DB79002B0AD000F077FF00BF00F062FF7F
:1012A000034683F00103DBB2002BF7D17B685B7A46
:1012B000184600F06FFB00BFFFF7D8FD0346002B78
:1012C000FAD17B681B7A184600F00CFD7B681B7C0A
:1012D000184600F07FFB7B685B7C184600F0A6FB9D
:1012E0007B689B7C184600F08BFB7B68DB7C184698
:1012F00000F0B2FB7B689B79002B0AD000F0D8FF8E
:1013000000BF00F0FDFF034683F00103DBB2002BBA
:10131000F7D17B68DB78002B02D101F055F811E0A2
:1013200001F040F87B6898887B68D9787B685B78A7
:101330001A467B681B781C467B689B780093234683
:1013400001F054F87B68DB68B3F5803F03D14FF4BC
:10135000803000F08BFA05F053F900BF0C37BD4622
:1013600090BD000080B483B000AF7860064B9A68EF
:101370007B68DB43044913408B6000BF0C37BD46DC
:101380005DF8047B704700BF6041005080B483B0BB
:1013900000AF7860054B9A6804497B6813438B6003
:1013A00000BF0C37BD465DF8047B704760410050BC
:1013B00080B400AF034B5B681846BD465DF8047B04
:1013C000704700BF6041005080B483B000AF7860C8
:1013D000044A7B68136100BF0C37BD465DF8047B8F
:1013E000704700BF6041005080B483B000AF7860A8
:1013F000044A7B68D36000BF0C37BD465DF8047BB0
:10140000704700BF6041005080B483B000AF786087
:10141000054B5A6904497B6813434B6100BF0C3785
:10142000BD465DF8047B70473C41005080B400AF7E
:10143000034B5B691846BD465DF8047B704700BFEF
:101440003C41005080B483B000AF7860054B1A680F
:1014500004497B6813430B6000BF0C37BD465DF841
:10146000047B70473C41005080B483B000AF78608B
:10147000064B1A687B68DB43044913400B6000BFCE
:101480000C37BD465DF8047B704700BF3C410050FF
:1014900080B483B000AF7860054B9A6804497B68DC
:1014A00013438B6000BF0C37BD465DF8047B70476B
:1014B0003C41005080B483B000AF7860064B9A681E
:1014C0007B68DB43044913408B6000BF0C37BD468B
:1014D0005DF8047B704700BF3C41005080B483B08E
:1014E00000AF7860054B5A6904497B6813434B6130
:1014F00000BF0C37BD465DF8047B70477440005058
:1015000080B483B000AF7860064B5A697B68DB43D8
:10151000044913404B6100BF0C37BD465DF8047BA6
:10152000704700BF7440005080B485B000AF786051
:101530007B681B0FFB607B6823F07043BB60FA681D
:1015400013465B0013449B001A46054B1344BA68CC
:101550001A6000BF1437BD465DF8047B704700BFBA
:101560001044005080B485B000AF78607B681B0FDA
:10157000FB607B6823F07043BB60FA6813465B0036
:1015800013449B001A46054B1344BA681A6000BF07
:101590001437BD465DF8047B704700BF144400500B
:1015A00080B485B000AF78607B681B0FFB607B6800
:1015B00023F07043BB60FA6813465B0013449B0042
:1015C0001A46084B13441A68BB681340002B14BF1B
:1015D00001230023DBB218461437BD465DF8047BB7
:1015E000704700BF0C44005080B584B000AF00F0DD
:1015F00039F8F8601A4B1B6803F00103002B09D07F
:10160000174B9B6803F07F030133FA68B2FBF3F3D7
:10161000FB601FE0124B9B681B0E03F00F030133AE
:10162000BB600F4B9B681B0A03F07F0301337B6099
:101630000B4B9B681B0C03F07F0301333B60FB6883
:101640007A6803FB02F2BB68396801FB03F3B2FB63
:10165000F3F3FB60FB6818461037BD4680BD00BF42
:101660001047005080B582B000AF084BDB6803F034
:101670000103002B03D105F02DF8786001E0044B45
:101680007B607B6818460837BD4680BD1047005018
:1016900000366E0180B584B000AF05F01BF8F8602D
:1016A000104B1B6903F00103002B16D10D4B5B6936
:1016B0001B0A03F07F030133BB600A4B5B691B0EFF
:1016C00003F00F0301337B60FB68BA6803FB02F28F
:1016D0007B685B00B2FBF3F3FB60FB6818461037D6
:1016E000BD4680BD1047005080B582B000AF0023DA
:1016F0007B60FFF79BFB7860054B1B6A03F00103DF
:101700007A6822FA03F318460837BD4680BD00BF49
:101710000046005080B582B000AF00237B60FFF729
:1017200059FB38603B68B3F5803F03D1FFF75CFF9E
:10173000786005E03B68002B02D1FFF7ABFF7860D3
:10174000054B9B6903F0070301337A68B2FBF3F39F
:1017500018460837BD4680BD0046005080B582B0AF
:1017600000AFFFF741FF7860054BDB6903F03F03F3
:1017700001337A68B2FBF3F318460837BD4680BDE3
:101780000046005080B582B000AF00237B60FFF7B9
:101790002FFB38603B68B3F5003F03D1FFF724FF10
:1017A00078600CE03B68002B02D10A4B7B6006E0BE
:1017B0003B68B3F5803F02D14FF400437B60064B9A
:1017C0005B6ADBB201337A68B2FBF3F31846083781
:1017D000BD4680BD00366E010046005080B582B027
:1017E00000AF00237B60FFF711FB0346FB70FB7823
:1017F000032B0DD1FFF7F8FE7860134B9B6A1B0C8F
:10180000C3F3080301337A68B2FBF3F37B6016E09D
:10181000FB78002B03D1FFF709FB78600FE0FB7822
:10182000022B0CD1FFF736FF7860074B9B6A1B0C2D
:10183000C3F3080301337A68B2FBF3F37B607B6880
:1018400018460837BD4680BD0046005080B500AF41
:10185000FFF700FB0246044B5B6903F0010322FA29
:1018600003F3184680BD00BF0046005080B483B02B
:1018700000AF7860064BDB6823F4803204497B6854
:101880001343CB6000BF0C37BD465DF8047B704747
:101890000046005080B483B000AF7860064B9B696F
:1018A00023F4803204497B6813438B6100BF0C37FB
:1018B000BD465DF8047B70470046005080B483B09D
:1018C00000AF7860064B5B6A23F4403204497B68C2
:1018D00013434B6200BF0C37BD465DF8047B704775
:1018E0000046005080B483B000AF0346FB71074B45
:1018F0009B6A23F00302FB79044913438B6200BF08
:101900000C37BD465DF8047B704700BF00460050B1
:1019100080B483B000AF0346FB80FB88002B08D166
:101920000B4BDB680A4A23F4807323F00103D36076
:1019300007E0074BDB68064A43F4807343F001037A
:10194000D36000BF0C37BD465DF8047B704700BF15
:101950001047005080B483B000AF0346FB7100BF56
:101960000A4BD3F8C43003F00803002BF8D1084B1E
:10197000DB6823F04002FB7905491343CB6000BFCD
:101980000C37BD465DF8047B704700BF0040005037
:101990000043005080B483B000AF0346FB7100BF2A
:1019A0000A4BD3F8C43003F00803002BF8D1084BDE
:1019B000DB6823F08002FB7905491343CB6000BF4D
:1019C0000C37BD465DF8047B704700BF00400050F7
:1019D0000043005080B483B000AF7860074BDB68F1
:1019E00023F0FF027B68013B04491343CB6000BF37
:1019F0000C37BD465DF8047B704700BF00460050C1
:101A000080B483B000AF7860074B1B6A23F00102FB
:101A10007B68013B044913430B6200BF0C37BD4692
:101A20005DF8047B704700BF0046005080B483B06F
:101A300000AF7860074B1B6923F001027B68013B14
:101A4000044913430B6100BF0C37BD465DF8047BAE
:101A5000704700BF0046005080B483B000AF78608C
:101A6000074B5B6923F001027B68013B0449134388
:101A70004B6100BF0C37BD465DF8047B704700BF6B
:101A80000046005080B483B000AF7860074B9B697C
:101A900023F007027B68013B044913438B6100BFBD
:101AA0000C37BD465DF8047B704700BF0046005010
:101AB00080B483B000AF7860074BDB6923F03F024E
:101AC0007B68013B04491343CB6100BF0C37BD4623
:101AD0005DF8047B704700BF0046005080B483B0BF
:101AE00000AF7860074B5B6A23F0FF027B68013B25
:101AF000044913434B6200BF0C37BD465DF8047BBD
:101B0000704700BF0046005080B483B000AF7860DB
:101B1000084B9B6A23F0FF7323F480337A68013A01
:101B20001204044913438B6200BF0C37BD465DF8B5
:101B3000047B70470046005080B483B000AF03467A
:101B4000FB71044AFB79536000BF0C37BD465DF85A
:101B5000047B70470046005080B483B000AF03465A
:101B6000FB71044AFB79936000BF0C37BD465DF8FA
:101B7000047B70470046005080B483B000AF03463A
:101B8000FB71074B1A68FB791340002B14BF01232C
:101B90000023DBB218460C37BD465DF8047B704766
:101BA0000046005080B400AF084B5B69DBB207EE23
:101BB000903AF8EE677A9FED067A67EE877A17EE2D
:101BC000903A1846BD465DF8047B704700420050CD
:101BD000ED0DBE3B80B400AF094B5B691B0ADBB265
:101BE00007EE903AF8EE677A9FED067A67EE877A0D
:101BF00017EE903A1846BD465DF8047B704700BF6B
:101C000000420050EC51B83C80B400AF064B5B6919
:101C1000054A23F4803323F00203536100BFBD461D
:101C20005DF8047B704700BF1047005080B400AFE0
:101C3000064B5B69054A43F4803343F0020353616A
:101C400000BFBD465DF8047B704700BF10470050E1
:101C500080B483B000AF786039601A4B5B69194A71
:101C600043F001035361174B5B69164A43F01003BD
:101C700053613B68013B1A027B68013B1B0611491B
:101C800013434B610F4B5B690E4A43F040035361B2
:101C90000C4B5B690B4A23F010035361094B5B69E2
:101CA000084A43F48023536100BF064B1B6903F0CD
:101CB0000403002BF9D000BF00BF0C37BD465DF810
:101CC000047B70471047005080B400AF034B044AB8
:101CD0005A6100BFBD465DF8047B70471047005055
:101CE0000300010080B582B000AF0346FB710F4BCB
:101CF0005B680E4A43F480135360FB79012B0ED1CD
:101D00000A4B5B68094A23F4801353606420FFF791
:101D1000B9F8064B5B68054A43F40023536064201E
:101D2000FFF7B0F800BF0837BD4680BD1047005030
:101D300080B400AF044B4FF440325A6000BFBD4640
:101D40005DF8047B704700BF0042005080B400AFD4
:101D5000044B4FF440329A6000BFBD465DF8047BEF
:101D6000704700BF0042005080B400AF064B1B69B3
:101D700003F00403002B14BF01230023DBB2184639
:101D8000BD465DF8047B70471047005080B400AF3B
:101D9000124B1B6803F00103002B09D10F4B0122EA
:101DA0005A6000BF0D4B1B6803F00103002BF9D0F4
:101DB0000B4B1B6803F40073002B0AD0084B4FF445
:101DC00000729A6000BF064B1B6803F40073002B7F
:101DD000F9D100BFBD465DF8047B7047004200505A
:101DE0000044005080B400AF054B01229A60054BBF
:101DF0004FF400725A6000BFBD465DF8047B704727
:101E0000004200500044005080B400AF0B4B1B68F0
:101E100003F00103002B07D0094B1B6803F4007388
:101E2000002B01D1012300E0002303F00103DBB20A
:101E30001846BD465DF8047B704700BF0042005065
:101E40000044005080B400AF00BF094BD3F8C43049
:101E500003F02003002BF8D1064B5B69054A23F001
:101E60000103536100BFBD465DF8047B704700BFAE
:101E7000004000500043005080B400AF00BF094B49
:101E8000D3F8C43003F02003002BF8D1064B5B6974
:101E9000054A43F00103536100BFBD465DF8047B72
:101EA000704700BF004000500043005080B483B032
:101EB00000AF786000BF084BD3F8C43003F00203D2
:101EC000002BF8D1054A7B68536000BF0C37BD4634
:101ED0005DF8047B704700BF004000500043005095
:101EE00080B483B000AF786000BF084BD3F8C43033
:101EF00003F00403002BF8D1054A7B68936000BF10
:101F00000C37BD465DF8047B704700BF00400050B1
:101F10000043005080B483B000AF786000BF094B2D
:101F2000D3F8C43003F00803002BF8D1064BDA686D
:101F30007B6805491343CB6000BF0C37BD465DF895
:101F4000047B7047004000500043005080B483B0D1
:101F500000AF786000BF0A4BD3F8C43003F0080329
:101F6000002BF8D1074BDB687A68D2431146054A4B
:101F70000B40D36000BF0C37BD465DF8047B704753
:101F8000004000500043005080B400AF00BF094B38
:101F9000D3F8C43003F00803002BF8D1064BDB68FC
:101FA000054A43F01003D36000BFBD465DF8047BD3
:101FB000704700BF004000500043005080B582B021
:101FC00000AF0346FB71FB79002B01D1FFF7DCFF6B
:101FD00000BF0837BD4680BD80B483B000AF034664
:101FE000FB7100BF0E4BD3F8C43003F00803002B85
:101FF000F8D1FB79002B06D10A4BDB68094A43F480
:102000008073D36005E0074BDB68064A23F48073D6
:10201000D36000BF0C37BD465DF8047B704700BF3E
:10202000004000500043005080B483B000AF03462E
:102030003960FB7100BF0F4BD3F8C43003F00803C5
:10204000002BF8D10C4BDA68FB799B004FF4702120
:1020500001FA03F3DB431A40FB799B00396801FA6C
:1020600003F305491343CB6000BF0C37BD465DF851
:10207000047B7047004000500043005080B483B0A0
:1020800000AF03460A46FB711346BB8000BF0F4BEF
:10209000D3F8C43003F00803002BF8D10C4BDA68F6
:1020A000FB794FF4805101FA03F3DB431340B98805
:1020B000FA7901FA02F21146054A0B43D36000BFD8
:1020C0000C37BD465DF8047B704700BF00400050F0
:1020D0000043005080B483B000AF0346FB7100BFE3
:1020E0000E4BD3F8C43003F00803002BF8D1FB7972
:1020F000002B06D10A4BDB68094A43F48063D360A6
:1021000005E0074BDB68064A23F48063D36000BF19
:102110000C37BD465DF8047B704700BF004000509F
:102120000043005080B483B000AF0346FB8000BF83
:102130000A4BD3F8C43003F00803002BF8D1084B46
:10214000DB6823F48062FB8805491343CB6000BF42
:102150000C37BD465DF8047B704700BF004000505F
:102160000043005080B400AF064B1B6803F0080327
:10217000002B0CBF01230023DBB21846BD465DF8DF
:10218000047B70470043005080B500AF00BF174B81
:10219000D3F8C43003F08003002BF8D1144BDB6973
:1021A000134A23F03003D36100BF104BD3F8C4307F
:1021B00003F00803002BF8D10D4BDB680C4A43F009
:1021C0000803D36000BF094BD3F8C43003F0040305
:1021D000002BF8D1064B08229A6000BFFEF746FE9E
:1021E0000346002BFAD100BF00BF80BD0040005065
:1021F0000043005080B400AF00BF094BD3F8C43097
:1022000003F08003002BF8D1064BDB69054A43F04D
:102210003003D36100BFBD465DF8047B704700BF4B
:10222000004000500043005080B400AF00BF094B95
:10223000D3F8C43003F08003002BF8D1064BDB69E0
:10224000054A43F03103D36100BFBD465DF8047B0E
:10225000704700BF004000500043005080B400AF02
:1022600000BF0A4BD3F8C43003F08003002BF8D131
:10227000074BDB6923F03103054A43F02003D361A8
:1022800000BFBD465DF8047B704700BF00400050B2
:102290000043005080B400AF044B9B6903F001037E
:1022A0001846BD465DF8047B704700BF00430050F0
:1022B00098B500AF0F4B5B680E4A23F48033536030
:1022C0000D4B5B6823F4702424F0300404F002FA10
:1022D00003460A4AA2FB03231B0D013B1B04064ACB
:1022E00023435360034B5B68024A23F4003353607B
:1022F00000BF98BD10470050004700506BCA5F6B8D
:1023000080B400AF074B1B6803F46073B3F5607FC4
:102310000CBF01230023DBB21846BD465DF8047BE9
:10232000704700BF1047005080B400AF054B5B689A
:10233000044A43F03003536000BFBD465DF8047BA0
:10234000704700BF0047005080B400AF054B5B688A
:10235000044A43F00103536000BFBD465DF8047BAF
:10236000704700BF0047005080B400AF054B5B686A
:10237000044A23F00103536000BFBD465DF8047BAF
:10238000704700BF0047005080B400AF044B1B688B
:1023900003F001031846BD465DF8047B704700BF9B
:1023A0000047005080B400AF064B5B68054A23F439
:1023B000803323F00203536000BFBD465DF8047B09
:1023C000704700BF1047005080B400AF064B5B68F9
:1023D000054A43F4803343F00203536000BFBD4617
:1023E0005DF8047B704700BF1047005080B586B091
:1023F00000AFBA607B600346FB810B467B73FB89B1
:102400001846FFF785FA7B7B012B40F08480FB891F
:10241000002B09D104F05EF903464C4AA2FB0323CA
:102420009B0C9B057B6102E04FF0C0637B617B6985
:102430007A6803FB02F2BB68B2FBF3F37B617B6952
:10244000434AA2FB03231B099B0D3B61414B5B6885
:10245000404A43F0010353603E4B5B683D4A43F002
:10246000100353603B4B9A683B4B13407A68013A28
:1024700012021A433B69013B1B041A43BB68013B30
:102480001B06344913438B60324B5B68314A43F07F
:10249000400353602F4B5B682E4A23F010035360B8
:1024A0002C4B5B682B4A43F48023536000BF294BBD
:1024B0001B6803F00403002BF9D0264B5B68254A08
:1024C00023F00103536000BF224B1B6803F001039C
:1024D000002BF9D17B69214AA2FB03235B099B0DE9
:1024E0003B613A6A3B699A4202D2386900F04AF885
:1024F0007B695B081A4AA2FB03235B099B0D3B61C6
:102500003A6A3B699A4202D2386900F03BF8386A6D
:1025100000F038F815E00F4B9B6823F07F023B6A10
:10252000013B0C4913438B600A4B5B68094A43F03B
:102530000103536000BF074B1B6803F00103002B2E
:10254000F9D000BF1837BD4680BD00BF83DE1B43F6
:10255000ABAAAAAA10470050FF8080F0898888881B
:10256000B7600BB680B400AF054B5B68044A43F418
:102570008033536000BFBD465DF8047B704700BFE9
:102580001047005080B582B000AF7860084B9B6860
:1025900023F4FE027B68013B1B04054913438B6057
:1025A0003220FEF76FFC00BF0837BD4680BD00BF7C
:1025B0001047005080B400AF064B1B6803F00403C3
:1025C000002B14BF01230023DBB21846BD465DF883
:1025D000047B70471047005080B485B000AF78602E
:1025E00039600023FB6002E0FB680133FB607A681E
:1025F000FB6822FA03F303F00103002B02D1FB680E
:102600001F2BF1D9FB68202B02D10123FB7206E0BE
:102610000649FB683A6841F823200023FB72FB7AE5
:1026200018461437BD465DF8047B70472C0B00201C
:1026300080B586B000AF786000237B61FEF77EFC3A
:1026400038611CE03A697B6922FA03F303F0010365
:10265000002B11D00E4A7B6952F82330FB60FB68D7
:10266000002B01D0FB68984701227B6902FA03F333
:102670001846FEF76FFC06E07B6901337B617B69DE
:102680001F2BDFD900BF00BF1837BD4680BD00BF7C
:102690002C0B002080B483B000AF78600B46FB7039
:1026A0001346BB70FB789B08DBB21A467B6804328A
:1026B00053F82220FB7803F00303DB00F82101FA32
:1026C00003F3DB43F9788908C9B2084602EA03013B
:1026D0007B68021D43F82210FB789B08DBB21A4688
:1026E0007B68043253F82220B978FB7803F00303A7
:1026F000DB0001FA03F3F9788908C9B2084642EA17
:1027000003017B68021D43F8221000BF0C37BD4651
:102710005DF8047B704780B483B000AF78600B46EF
:10272000FB701346BB707B685A6FFB785B0003211C
:1027300001FA03F3DB431A407B685A677B685A6FE0
:10274000B978FB785B0001FA03F31A437B685A6798
:1027500000BF0C37BD465DF8047B70472DE9F04F94
:1027600091B002AFF860B34B93F83E31C3F340032E
:10277000DBB2002B14BF01230023DBB283F0010383
:10278000DBB2002B40F0C881AB4B9B889AB2FB6850
:102790001B789BB29A4240F0C181A74B5B78013B0A
:1027A0000A2B00F2C88101A252F823F0D9270008B1
:1027B0009F2A0008BF290008372B0008372B000884
:1027C000372B0008372B0008372B0008DD280008BE
:1027D0006F2A00083D2A0008974B1B78A12B40F078
:1027E0009F816B461C460023FB82934B5B889BB208
:1027F000DBB27B75904B5B889BB21B0A9BB2DBB252
:10280000013B87F82B30FB68197B0B46013B7B6251
:10281000CBB200223B607A604FF000024FF0000321
:10282000D7E900563046C300284643EA507328468D
:10283000C200CBB200229A4693464FF000024FF0FE
:1028400000034FEACB0343EA5A734FEACA020B462E
:102850000733DB08DB00ADEB030D02AB00333B625B
:102860000B461A460021386A04F072F897F82B20BC
:1028700007F1150107F1160300933B6AF868FDF7AD
:1028800001FEFB689B68002B07D0FB689868FB681B
:102890001B7B1A46396A00F05DFA0022654B83F80B
:1028A0003C210022634B83F83D2100BF614A92F82E
:1028B0003E316FF3410382F83E3100BF7B7D002B38
:1028C00003D07B7D184600F02FFCFB8A1946386A3E
:1028D00000F0C0FF00F032FBA54621E1564B1B780B
:1028E000212B40F01F816B461E46534B9A79DB79B2
:1028F0001B021343FB86504B5B889BB287F8353035
:102900004D4B5B889BB21B0A9BB2DBB2013B87F845
:102910003430F98E0B46013B3B638BB20022984664
:1029200091464FF000024FF000034FEAC90343EA1B
:1029300058734FEAC8028BB200221C4615464FF06E
:1029400000024FF00003EB0043EA5473E2000B4631
:102950000733DB08DB00ADEB030D02AB0033FB629A
:10296000344A92F83E316FF3410382F83E3100BFA2
:10297000FB8E1946F86A00F0B5FF00F02BFB97F8C4
:102980003530002B14BF01230023DBB21A46FB6A4B
:10299000981897F83530002B14BF01230023DBB2C1
:1029A0009BB2FA8ED31A9BB297F8342097F8351061
:1029B00000930346F868FDF7C7FFB546B2E01E4B2B
:1029C0001B78A12B40F0B0801A4A92F83E316FF389
:1029D000410382F83E3100BF00BF164B93F83C31F3
:1029E0001A462C2302FB03F3124A13440433FB61FF
:1029F000FB695B68C3F30013DBB2002B08D1FB69F2
:102A00001B7903F00203DBB2002B01D0012300E0AD
:102A1000002303F00103DBB283F00103DBB2002BE0
:102A2000DBD1FB681B7C184600F07EFB00F0D2FA7D
:102A300000BF79E0B00B002038110020404B1B781C
:102A4000212B73D13F4A92F83E316FF3410382F854
:102A50003E3100BF00BF3A4B5B889BB2DBB2002B1C
:102A600014BF01230023DAB2FB681A745EE0344B12
:102A70001B78212B5CD1334A92F83E316FF341032E
:102A800082F83E3100BF00BF2D4B5B889BB29B118B
:102A90009BB203F47F739AB2FB689A8248E0284B9A
:102AA0001B78A12B46D1274A92F83E316FF34103A0
:102AB00082F83E3100BF00BF224B93F83C311A46EA
:102AC0002C2302FB03F31F4A13440433BB61BB698D
:102AD0005B68C3F30013DBB2002B08D1BB691B7921
:102AE00003F00203DBB2002B01D0012300E000233E
:102AF00003F00103DBB283F00103DBB2002BDBD177
:102B0000FB689B8A9B089BB2DBB2184600F00CFB6B
:102B100000F060FA00BF0DE000BF0CE000BF0AE06B
:102B200000BF08E000BF06E000BF04E000BF02E015
:102B300000BF00E000BF3C37BD46BDE8F08F00BFDE
:102B400038110020B00B002080B582B000AF786053
:102B50007B68103308220021184603F0F9FE7B68D9
:102B600001221A747B6840F2EE229A827B6803226B
:102B70009A717B6802330121184600F0B1FB0346CD
:102B800083F00103DBB2002B01D0002300E001231E
:102B900018460837BD4680BD2DE9F0438BB002AF23
:102BA00078606A4B1B78DBB2042B40F0C8807B68EE
:102BB0005E8A674B1B689B6B984703469E4200F0FA
:102BC000C0807B689B787B747B7C03F00F03DAB258
:102BD0005F4B83F83C217B7C23F07F03DAB25C4BB4
:102BE00083F83D2100BF00F06DFA0346002B00F092
:102BF000A9806B461E467B68197B0B46013BBB6177
:102C0000CBB20022984691464FF000024FF00003ED
:102C10004FEAC90343EA58734FEAC802CBB2002215
:102C20001C4615464FF000024FF00003EB0043EA4C
:102C30005473E2000B460733DB08DB00ADEB030DFA
:102C400002AB00337B610023FB730023BB810B4687
:102C50001A460021786903F07BFE07F10F0107F1A6
:102C60000C0300937B6900227868FDF70BFC034698
:102C7000FB740023FB777B689B8A002B05D07B6865
:102C8000DB8A002B01D1012300E00023BB74BB7C55
:102C900003F00103BB747B689B68002B14D07B6836
:102CA0009B68BA891946786903F084FD0346002BB6
:102CB00014BF01230023FB777B6898687B681B7B2C
:102CC0001A46796900F046F8BB89002B2DD0FB7CB1
:102CD000002B05D1FB7F002B02D1BB7C002B24D025
:102CE0007B689A8A7B68DA827B689B783B743B7C42
:102CF00003F00F03DAB2164B83F83C213B7C23F040
:102D00007F03DAB2124B83F83D2100BFFB7B002B1F
:102D100003D0FB7B184600F007FABB890022194656
:102D2000786900F085FB00F055F9094B1B689B6B37
:102D3000984703461A467B685A82B54602E000BFB0
:102D400000E000BF2437BD46BDE8F08340110020FD
:102D5000B00B0020130911D051F804CB40F804CB7C
:102D600051F804CB40F804CB51F804CB40F804CB25
:102D700051F804CB40F804CB013BEDD112F00F0326
:102D800005D011F801CB00F801CB013BF9D1704718
:102D900000BF000080B483B000AF0346FB7197F919
:102DA0000730002B0BDBFB7903F01F02074997F973
:102DB00007305B09012000FA02F241F8232000BF2E
:102DC0000C37BD465DF8047B704700BF00E100E0B2
:102DD00080B483B000AF0346FB7197F90730002B36
:102DE00012DBFB7903F01F020A4997F907305B09F0
:102DF000012000FA02F2203341F82320BFF34F8F65
:102E000000BFBFF36F8F00BF00BF0C37BD465DF83A
:102E1000047B704700E100E080B586B000AF64231A
:102E2000FB75444B1B689B6B98470346BB82414B29
:102E300093F83C311A462C2302FB03F33D4A13441A
:102E40000433FB60FB681B7823F07F03DBB2802B2D
:102E500022D1384B93F83C311A462C2302FB03F362
:102E6000344A13440433BB60BB685B68C3F300138C
:102E7000DBB2002B08D1BB681B7903F00203DBB285
:102E8000002B01D0012300E0002303F00103DBB29B
:102E9000002B1AD0002348E0264B93F83C311A4609
:102EA0002C2302FB03F3234A134404337B607B6827
:102EB0005B68C3F34013DBB2002B14BF0123002374
:102EC000DBB2002B01D000232FE01B4B1B78FB74DF
:102ED000FB7C002B01D1022327E0FB7C052B01D1D9
:102EE000032322E0134B93F83C311946114A2C235B
:102EF00001FB03F313441B7AC3F38003DBB2002B03
:102F000001D0012311E00B4B1B689B6B98470346D4
:102F10003B823A8ABB8A9A4289D03B8ABB82FB7D3C
:102F20005A1EFA75002B82D1042318461837BD4665
:102F300080BD00BFB00B00204011002080B582B0E2
:102F400000AF234B93F83C311A462C2302FB03F3CA
:102F50001F4A134404337B607B681B7903F0020330
:102F6000DBB2002B2FD01A4B1B68DB6A7A68107813
:102F70007A6811697A685269984703461A467B68ED
:102F80009A607B680022DA607B685B68C3F3C003E9
:102F9000DBB2002B18D17B689B68002B14D17A68B8
:102FA000938843F0080393807A6893886FF34513FE
:102FB0009380074B1B689B6A7A6810787A6852691D
:102FC0001146984700E000BF0837BD4680BD00BFEE
:102FD000B00B002080B582B000AF384B93F83C3185
:102FE0001A462C2302FB03F3344A134404337B6058
:102FF0007B685B68C3F30013DBB2012B59D07B689D
:103000001B7903F00203DBB2002B52D07A6893885D
:1030100043F0100393807B68DA697B689A627B686F
:103020009A697B685A627B6800229A616B20FFF77D
:10303000CFFE224B1B681B6B7A6810787A68916A06
:103040007A68526A984738607B689A6A3B681A4483
:103050007B689A627B685A6A3B68D21A7B685A62BC
:103060006B20FFF797FE164B1B78DBB2012B21D1AB
:103070007B681B7803F00F03DBB2002B1AD000BF74
:103080007B685B68C3F30013DBB2002BF8D17A686E
:10309000938843F010039380084B1B681B6B7A687E
:1030A00010787A68916A00229847054B00221A70BE
:1030B00000E000BF0837BD4680BD00BFB00B002058
:1030C000AC0B002080B483B000AF164B93F83C31BA
:1030D0001A462C2302FB03F3124A134404333B60C9
:1030E0000023FB713B681B7823F07F03DBB2002BCE
:1030F00009D03B689A693B681B6A9A4234BF012336
:103100000023FB7106E03B689B68002B14BF012382
:103110000023FB71FB7918460C37BD465DF8047B34
:10312000704700BFB00B002080B485B000AF0346ED
:10313000FB71174B93F83C311A462C2302FB03F327
:10314000134A13440433BB600023FB73BB689A69C2
:10315000BB681B6A9A420DD2BB68DA69BB689B697F
:103160001344FA791A70BB689B695A1CBB689A6150
:103170000123FB73FB7B83F00103DBB2002BE5D162
:1031800000BF00BF1437BD465DF8047B704700BF29
:10319000B00B002080B483B000AF194B93F83C31E2
:1031A0001A462C2302FB03F3154A134404333B60F5
:1031B0000023FB710023BB713B689B68002B12D07E
:1031C0003B681A693B68DB6813441B78BB713B683A
:1031D000DB685A1C3B68DA603B689B685A1E3B6898
:1031E0009A600123FB71FB7983F00103DBB2002BB2
:1031F000E2D1BB7918460C37BD465DF8047B7047B9
:10320000B00B002080B485B000AF7860174B93F806
:103210003C311A462C2302FB03F3144A13440433B3
:10322000BB600023FB73BB689A69BB681B6A033BE6
:103230009A420DD2BB68DA69BB689B6913447A680D
:103240001A60BB689B691A1DBB689A610123FB73F6
:10325000FB7B83F00103DBB2002BE4D100BF00BF96
:103260001437BD465DF8047B704700BFB00B0020EB
:1032700080B485B000AF194B93F83C311A462C232B
:1032800002FB03F3154A134404337B600023FB73F2
:103290000023BB607B689B68032B12D97B681A698B
:1032A0007B68DB6813441B68BB607B68DB681A1DA6
:1032B0007B68DA607B689B681A1F7B689A600123D1
:1032C000FB73FB7B83F00103DBB2002BE2D1BB6815
:1032D00018461437BD465DF8047B7047B00B0020DC
:1032E00090B585B000AF78600B46FB700023FB7390
:1032F00092E0FA7B13465B0013445B001A467B683E
:1033000013441B7803F00F03BB73484B1B68DC6945
:10331000FA7B13465B0013445B001A467B68134438
:103320001878FA7B13465B0013445B001A467B68EF
:1033300013441979FA7B13465B0013445B001A4669
:103340007B6813445B881A46A0470346002B01D0D4
:10335000002367E0FA7B13465B0013445B001A46C8
:103360007B681A44BB7B1078304A2C2101FB03F3A5
:103370001344043302461A70FA7B13465B0013446D
:103380005B001A467B6813445A88BB7B02F07F02BD
:10339000D1B2264A2C2000FB03F31A44138961F3AF
:1033A0008C131381BB7B214A2C2101FB03F31A44AC
:1033B000137A43F001031372BB7B1C4A2C2101FBDF
:1033C00003F31A44137A43F002031372FA7B134691
:1033D0005B0013445B001A467B6813441B785BB2A6
:1033E000002B16DB114B1B689C6AFA7B13465B00B3
:1033F00013445B001A467B6813441A78BB7B0B4965
:103400002C2000FB03F30B4418331B6819461046AD
:10341000A047FB7B0133FB73FA7BFB789A42FFF4F6
:1034200068AF012318461437BD4690BDB00B00208D
:1034300080B588B000AFF8600B467A607B813F4B67
:1034400093F83C311A462C2302FB03F33B4A134406
:103450000433BB610023FB820023FB830023BB8377
:103460007B68002B52D07B681B887A89D31A7B81BA
:103470007B681B88FB8349E0BB695B68C3F300136F
:10348000DBB2002B00D041E0FFF71CFE0346002B0F
:1034900029D0BB691A6ABB699B69D21A7B8993429E
:1034A00028BF1346FB82BB69DB691A46BB699B696F
:1034B00013441846FA8BFB6813441946FB8A1A46D4
:1034C000FFF748FCBB699A69FB8A1A44BB699A6199
:1034D000FA8BFB8A1344FB837B89BB837A89FB8A43
:1034E000D31A7B8112E0FFF775FD7B68002B04D0B7
:1034F0007B68FA8B1A8005231BE0FFF78DFC0346DF
:103500007B757B7D002B01D07B7D12E07B89002BBE
:10351000B2D17B89002B0BD1BB699B88C3F3861387
:10352000DBB29BB2BA8B9A4202D1054B01221A70D0
:10353000002318462037BD4680BD00BFB00B0020D9
:10354000AC0B002080B487B000AFF860B9607A603F
:1035500000237B610EE0BA687B69134419467A68E0
:103560007B69D21AFB681344013B0A781A707B69A5
:1035700001337B617A697B689A42ECD300BF00BF5C
:103580001C37BD465DF8047B7047000080B588B0ED
:1035900000AFF8600B467A607B81354B93F83C3185
:1035A0001A462C2302FB03F3314A13440433BB6154
:1035B0000023FB820023FB837B68002B50D07B68B9
:1035C0001B887A89D31A7B817B681B88FB8347E041
:1035D000BB695B68C3F30013DBB2002B00D03FE094
:1035E000FFF770FD0346002B27D0BB691A6ABB6941
:1035F0009B69D21A7B89934228BF1346FB82BB6921
:10360000DB691A46BB699B6913441846FA8BFB6851
:1036100013441946FB8A1A46FFF794FFBB699A695F
:10362000FB8A1A44BB699A61FA8BFB8A1344FB83B9
:103630007A89FB8AD31A7B8112E0FFF7CBFC7B6887
:10364000002B04D07B68FA8B1A8005230CE0FFF76F
:10365000E3FB03467B757B7D002B01D07B7D03E084
:103660007B89002BB4D1002318462037BD4680BD8E
:10367000B00B002080B588B000AFF8600B467A60D0
:103680007B81374B93F83C311A462C2302FB03F322
:10369000334A13440433BB610023FB820023FB83C2
:1036A0007B68002B53D07B681B887A89D31A7B8177
:1036B0007B681B88FB834AE0BB695B68C3F3C0037C
:1036C000DBB2002B00D042E0FFF7FCFC0346002BEE
:1036D0002AD0BB699A687B89934228BF1346FB8234
:1036E000FA8BFB6813441846BB691B691A46BB6911
:1036F000DB6813441946FB8A1A46FFF72BFBBB69AC
:103700009A68FB8AD21ABB699A60BB69DA68FB8A3D
:103710001A44BB69DA60FA8BFB8A1344FB837A890B
:10372000FB8AD31A7B8112E0FFF708FC7B68002B31
:1037300004D07B68FA8B1A8005230CE0FFF76CFB42
:1037400003467B757B7D002B01D07B7D03E07B896D
:10375000002BB1D1002318462037BD4680BD00BFE5
:10376000B00B002080B588B000AFF8600B467A60DF
:103770007B81374B93F83C311A462C2302FB03F331
:10378000334A13440433BB610023FB820023FB83D1
:103790007B68002B53D07B681B887A89D31A7B8186
:1037A0007B681B88FB834AE0BB695B68C3F300133B
:1037B000DBB2002B00D042E0FFF784FC0346002B75
:1037C0002AD0BB699A687B89934228BF1346FB8243
:1037D000FA8BFB6813441846BB691B691A46BB6920
:1037E000DB6813441946FB8A1A46FFF7ABFEBB6938
:1037F0009A68FB8AD21ABB699A60BB69DA68FB8A4D
:103800001A44BB69DA60FA8BFB8A1344FB837A891A
:10381000FB8AD31A7B8112E0FFF790FB7B68002BB9
:1038200004D07B68FA8B1A8005230CE0FFF7F4FACA
:1038300003467B757B7D002B01D07B7D03E07B897C
:10384000002BB1D1002318462037BD4680BD00BFF4
:10385000B00B002080B584B000AF78600B467B8051
:10386000174BBB6024E0BB685B68C3F30013DBB29B
:10387000002B1DD1BB681A6A7B889A4202D97B88CB
:10388000FB8102E0BB681B6AFB81BB68DB69FA89CC
:1038900079681846FFF75EFABB689A69FB891A4493
:1038A000BB689A617A88FB89D31A7B80FFF792FB09
:1038B0007B88002BD7D1002318461037BD4680BD2A
:1038C000B40B002080B582B000AF78600B467B80DF
:1038D0007B8819467868FFF7BDFF0346184608370E
:1038E000BD4680BD80B584B000AF78600B467B805C
:1038F000154BFB6020E0FB685B68C3F34013DBB251
:10390000002B19D0FB689A687B88934228BF134626
:103910007B81FB681B697A8919467868FFF71AFA78
:10392000FB689A687B89D21AFB689A607A887B89DF
:10393000D31A7B80FFF702FB7B88002BDBD10023AF
:1039400018461037BD4680BDB40B002080B582B04C
:1039500000AF78600B467B807B8819467868FFF75C
:10396000C1FF034618460837BD4680BD80B586B006
:1039700000AF03463960FB80324B93F83C311A4666
:103980002C2302FB03F32F4A134404333B6100232F
:10399000FB810023FB823B68002B4BD03B681B88DC
:1039A000FA88D31AFB803B681B88FB8242E03B69A4
:1039B0005B68C3F30013DBB2002B00D03AE0FFF7E3
:1039C00081FB0346002B22D03B691A6A3B699B6945
:1039D000D21AFB88934228BF1346FB813B69DA6900
:1039E0003B699B691344FA890021184602F0B0FF35
:1039F0003B699A69FB891A443B699A61FA8AFB8997
:103A00001344FB82FA88FB89D31AFB8012E0FFF78C
:103A1000E1FA3B68002B04D03B68FA8A1A80052340
:103A20000CE0FFF7F9F903467B737B7B002B01D099
:103A30007B7B03E0FB88002BB9D1002318461837A5
:103A4000BD4680BDB00B002080B500AF084B1B68A1
:103A50005B6A012180209847054B012283F83B21B6
:103A6000034B1B689B6A18210020984700BF80BD4C
:103A7000B00B002080B586B000AF00237B6100232F
:103A80003B81A54B5B889BB2FB74FDF7E7F8A34B2A
:103A900093F83E31C3F34003DBB2002B00F0FD810D
:103AA0009D4B5B780C2B00F2E88101A252F823F0C9
:103AB000273C0008E53A00087B3E0008B13D0008BD
:103AC0007B3E00080B3D00088B3B0008773D00085B
:103AD0007B3B00083F3D0008EF3B00087D3D0008B0
:103AE000753E00088C4B1B7803F00303022B33D187
:103AF000894B9B889BB203F00F037B81884B1B781B
:103B0000DBB2042B04D0844B9B889BB2002B20D1CA
:103B10007B89824A2C2101FB03F313441B7AC3F3F4
:103B20000003DBB2012B14D17B897C4A2C2101FBE1
:103B300003F31A44137A6FF382031372774B1B68F3
:103B40005B6A754A928892B2D2B2002110469847B9
:103B50009BE1FFF779FF98E16F4B1B7803F00303BC
:103B6000002B07D16D4A92F83E316FF3820382F841
:103B70003E318AE1FFF768FF87E1684B1B681B6BEA
:103B800001226849002098477FE1634B5B889BB224
:103B9000614A928892B2D1B23A1D1846FDF774F884
:103BA00003467B617B69002B02D1FFF74DFF6CE17F
:103BB000594BDB889BB21A467B69934228BF134658
:103BC0007B61564B1B681B6B79687A6900209847AC
:103BD0000346FB607A69FB68D31A504A93627B689C
:103BE0001A46FB6813441A464C4BDA624DE14C4BC3
:103BF0001B78DBB2042B0DD1484B1B681B6B464A6C
:103C0000928892B202F59C7244491144012200202C
:103C100098473AE1424B1B78DBB2032B40F03081EE
:103C2000FFF712FF31E13C4B1B7803F00303002B3D
:103C30001BD13A4B93F83E31C3F38003DBB25B00F8
:103C40001AB2364B93F83E31C3F3C003DBB21BB25A
:103C500013431BB29BB23B81304B1B681B6B07F1BC
:103C600008010222002098470FE12B4B1B7803F03C
:103C70000303012B0FD12A4B1B78DBB2042B0AD193
:103C800000233B81254B1B681B6B07F108010222B7
:103C900000209847F9E0204B1B7803F00303022B28
:103CA00030D11D4B9B889BB203F00F037B811C4BD3
:103CB0001B78DBB2042B04D0174B9B889BB2002BE4
:103CC00020D17B89154A2C2101FB03F313441B7A75
:103CD000C3F30003DBB2012B14D17B890F4A2C21E3
:103CE00001FB03F313441B7AC3F38003DBB29BB2E3
:103CF0003B810A4B1B681B6B07F108010222002065
:103D00009847C2E0FFF7A0FEBFE0FB7C002B0BD181
:103D1000034B02221A700AE038110020B00B002079
:103D200040110020E90C00205E4B03221A705E4B0C
:103D30001B689B69FA7C002110469847A5E05A4A07
:103D4000FB7C82F83931FCF761FFFB7C002B03D14F
:103D5000544B03221A7098E0534B93F83E3103F012
:103D60000103DBB2002B03D04E4B04221A708CE00F
:103D7000FFF76AFE89E0FFF767FE86E0494B1B7894
:103D8000DBB2042B0CD1494B5B889AB2474B9B8822
:103D90009BB21946D2B2444B0B4483F8382174E0ED
:103DA000404B1B78DBB2032B6CD1FFF74DFE6CE070
:103DB000FB7C022B02D1FFF747FE66E0394B1B78F4
:103DC000DBB2042B37D1FB7C002B09D0012B5BD15C
:103DD000354A92F83E3143F0040382F83E3129E03F
:103DE000324B9B889BB203F00F037B817B892E4A69
:103DF0002C2101FB03F313441B7AC3F30003DBB252
:103E0000002B02D1FFF720FE13E07B89264A2C21EC
:103E100001FB03F31A44137A43F004031372224B99
:103E20001B685B6A214A928892B2D2B20121104685
:103E3000984700BF28E01B4B1B78DBB2032B16D141
:103E4000FB7C002B13D1194B1B7803F00303022BCF
:103E50000DD1164B9B889BB2DBB2002B07D1124AC7
:103E6000137A43F004031372FFF7EEFD0DE0FFF742
:103E7000EBFD0AE0FFF7E8FD07E0FFF7E5FD04E0F2
:103E800000BF02E000BF00E000BF074A92F83E31E9
:103E90006FF3410382F83E3100E000BF1837BD46A2
:103EA00080BD00BF40110020B00B00203811002061
:103EB00080B500AF104B93F83B31022B09D10E4B6C
:103EC0001B689B6A0021002098470B4B052283F852
:103ED0003B21094B93F83B31032B0BD1064B1B685D
:103EE0009B6A054A1279182110469847024B012215
:103EF00083F83B2100BF80BDB00B002080B500AF30
:103F0000124B93F83B31042B0CD1FFF7B3FD0F4B51
:103F10001B681B6B00220021002098470B4B0322DB
:103F200083F83B21094B93F83B31052B0BD1074B11
:103F30001B689B6A054A1279182110469847034B63
:103F4000012283F83B2100BF80BD00BFB00B0020E1
:103F500080B582B000AF214B1B68DB6A0822204984
:103F60000020984778601D4A92F83E3143F00203E2
:103F700082F83E317B68082B2CD1194BDB889BB231
:103F8000002B0DD1154B032283F83B21FFF772FD67
:103F9000124B1B681B6B00220021002098471AE07F
:103FA0000F4B1B785BB2002B06DA0C4B022283F816
:103FB0003B21FFF75FFD0EE0084B042283F83B2115
:103FC000064B1B689B6A064AD28892B211460020B3
:103FD000984700E000BF0837BD4680BDB00B002009
:103FE0003811002080B584B000AF0346FB71FB7927
:103FF000092B00F2FD8001A252F823F05341000882
:10400000414100082F4100083541000825400008C3
:10401000F1410008D9410008C9410008F1410008F8
:1040200029410008744B02221A70744B012283F854
:104030003B21724A92F83E316FF3820382F83E319F
:104040000023FB6050E06D4AFB682C2101FB03F369
:104050001A4413896FF304131381684AFB682C21F7
:1040600001FB03F31A4413896FF3C3031381634AFB
:10407000FB682C2101FB03F31A44137A6FF38203CC
:104080001372FB68002B2CD05C4AFB682C2101FBCF
:1040900003F313441B7AC3F30003DBB2002B20D0DD
:1040A000564B1B681B6A5549FA682C2000FB02F22C
:1040B0000A440432127810469847504AFB682C2173
:1040C00001FB03F31A44137A6FF3000313724B4A94
:1040D000FB682C2101FB03F31A44137A6FF34103AD
:1040E0001372FB680133FB60FB68062BABDD434BAF
:1040F000002283F839210023FB6009E03F4AFB6876
:10410000134403F59C7300221A70FB680133FB60B3
:10411000FB68002BF2DD394B1B689B6A374A12792A
:1041200018211046984764E002F0FCF861E0FCF7C3
:104130004EFD5EE0304B01221A7002F0F3F858E0B9
:104140002D4B00221A702D4B1B681B6A00209847CC
:104150004FE0294B01221A704FF4A072002127482A
:1041600002F0F6FB254B264A1A60244B012283F805
:104170003B21224B234A1A62204B4FF480725A6231
:104180001E4B214A5A611D4B4FF480729A611B4AA3
:1041900013796FF3C7131371184A137A43F00103AD
:1041A0001372164A137A43F002031372134A1389E7
:1041B000402161F38C131381104B1B68DB69402293
:1041C00000210020984714E00C4B93F83A210A4B49
:1041D0001A7002F0A7F80CE0074B1B78DAB2074B15
:1041E00083F83A21044B05221A7002F09BF800E094
:1041F00000BF1037BD4680BD40110020B00B00202D
:10420000286B0008F00C0020F00D002080B586B06F
:1042100000AF03460A46FB711346BB71FB7903F0FE
:104220000F032C2202FB03F35E4A134404337B6129
:104230005C4B93F83C31FB745A4B93F83D31BB74A3
:10424000FB7903F00F03DAB2564B83F83C21FB797C
:1042500023F07F03DAB2534B83F83D21BB79022B65
:104260003FD0022B00F39380002B02D0012B0FD004
:104270008DE07A6993886FF3C3039380494B93F879
:104280003C31002B02D1FFF763FE00E000BF7EE06F
:104290007A69938843F0200393807B699B68002BA5
:1042A00010D17B690022DA603E4B1B68DB6A7A69B9
:1042B00010787A6911697A695269984703461A46F3
:1042C0007B699A607A6993886FF3C3039380354B57
:1042D00093F83C31002B02D1FFF710FE00E000BF45
:1042E00055E07B695B6A002B17D02E4B1B681B6B5C
:1042F0007A6910787A69916A7A69526A9847F8609F
:104300007B695A6AFB68D21A7B695A627B699A6A2E
:10431000FB681A447B699A6241E07B691B7803F071
:104320000F03DBB2002B20D17B699B69002B1CD0D3
:104330007B699B691C4AD28892B2934215D07B69F3
:104340009B697A699288C2F38612D2B2B3FBF2F10A
:1043500001FB02F29B1A002B07D1124B1B681B6B4F
:104360007A6910780022002198477B6900229A61BF
:104370007A6993886FF3041393800A4B93F83C3166
:10438000002B02D1FFF794FD00E000BF00BF054AFB
:10439000FB7C82F83C31034ABB7C82F83D31183704
:1043A000BD4680BDB00B00203811002080B584B020
:1043B00000AF78600023FB604FF4A0720021294811
:1043C00002F0C6FA284B00221A70264B274A1A60C0
:1043D000244B012283F83B21224B254A1A62214BB0
:1043E0004FF480725A621F4B224A5A611D4B4FF4A0
:1043F00080729A611B4A13796FF3C7131371194ABC
:10440000137A43F001031372164A137A43F002033E
:104410001372144A1389402161F38C131381114BD9
:104420001B685B68786898470346FB60FB68002B55
:1044300002D04FF0FF3311E00A4B1B68DB694022CA
:10444000002100209847FB68002B06D0054B1B6815
:104450009B6898474FF0FF3300E000231846103761
:10446000BD4680BDB00B002040110020286B000825
:10447000F00C0020F00D002080B500AF054B1B684C
:10448000DB6B98470346002B01D0012300E000239B
:10449000184680BDB00B002080B485B000AF034645
:1044A0003960FB711346BB80FB7903F00F03FB738C
:1044B00097F90730002B12DAFB7B154A2C2101FB00
:1044C00003F3134420333A681A60FB7BBA8810491F
:1044D0002C2000FB03F30B4424331A6011E0FB7B18
:1044E0000B4A2C2101FB03F3134414333A681A607E
:1044F000FB7BBA8806492C2000FB03F30B441833DE
:104500001A6000BF1437BD465DF8047B704700BFDA
:10451000B00B002080B485B000AF78600023BB737F
:104520000023FB731CE0FB7B134A342101FB03F3E4
:1045300013445B68C3F3C003DBB2002B0BD1FB7BDE
:104540000D4A342101FB03F313445B68C3F30013EA
:10455000DBB2002B01D00123BB73FB7B0133FB7368
:104560007B681B7BFA7B9A42DDD3BB7B18461437F2
:10457000BD465DF8047B7047280F002080B48BB0E7
:1045800000AF786039607B68342202FB03F3344A61
:1045900013443B62324BD3F8E031FB61304A7B6815
:1045A00070339B0013445B681B68FB603B689B088F
:1045B000BB61BB699B007B617B7B23F07F03DBB22C
:1045C000002B47D03B6A5B6A002B43D000237B6201
:1045D0000AE03B6A5A6A7B6A9B001344FA691268D4
:1045E0001A607B6A01337B627A6ABB699A42F0D3B4
:1045F0003A687B699A4221D0FB691B683B610023C2
:104600007B6215E07B6ADB00FF229A403B691A401F
:104610007B6ADB0022FA03F03B6A5A6ABB699900A5
:104620007B6A0B441344C2B21A707B6A01337B620B
:104630007A697B6A13443A689A42E3D83B6ADA6A39
:104640003B681A443B6ADA623B6A5A6A3B681A441E
:104650003B6A5A6200BF2C37BD465DF8047B704749
:10466000280F002080B489B000AF78607B681B7889
:10467000C3F30303DBB2234A783352F82330FB60E1
:104680007B681B78C3F30303DBB21E4A6A3352F81C
:1046900023309B69BB607B689A6A7B68DB6AD31AAC
:1046A000FB61FB69002B02D100237B6123E0FB69E6
:1046B00003339B08BB613B891A46BB69934204D90B
:1046C0003B89BB61BB699B00FB6100233B610CE044
:1046D0007B685B6A1A68FB681A603B6901333B615F
:1046E0007B685B6A1A1D7B685A623A69BB699A42A9
:1046F000EED3FB697B617B6918462437BD465DF8C4
:10470000047B7047280F002080B485B000AF0346BB
:10471000FB710023BB60BB6843F02003BB60FB79E7
:1047200003F01F03DAB2BB6862F38A13BB60154B58
:10473000D3F8A031BA681A610023FB6002E0FB687D
:104740000133FB60FB68B3F57A7FF8D30D4BD3F8E8
:10475000A0311B69BB60BB68C3F34013DBB2002B05
:10476000F4D10023FB6000BFFB685A1CFA60B3F56C
:104770007A7FF9D300BF00BF1437BD465DF8047BD4
:10478000704700BF280F002080B483B000AF002323
:104790003B603B6843F010033B60154BD3F8A031FE
:1047A0003A681A6100237B6002E07B6801337B601A
:1047B0007B68B3F57A7FF8D30D4BD3F8A0311B6932
:1047C0003B603B68C3F30013DBB2002BEAD100234C
:1047D0007B6000BF7B685A1C7A60B3F57A7FF9D39F
:1047E00000BF00BF0C37BD465DF8047B704700BFBB
:1047F000280F002080B483B000AF0123FB8000238A
:104800007B7100233B7105E0FB885B00FB807B79BB
:1048100001337B717B79062B07D8114BB3F8FC2150
:10482000FB8813409BB2002BEED10D4BB3F8FC215B
:10483000FB8813409BB2002B0AD1094BB3F8FC2133
:10484000FB8813439AB2064BA3F8FC217B793B719A
:104850003B7918460C37BD465DF8047B704700BFB6
:10486000280F002080B483B000AF0346FB710A4BD1
:10487000B3F8FC21FB79012101FA03F39BB2DB437E
:104880009BB213409AB2044BA3F8FC2100BF0C3733
:10489000BD465DF8047B7047280F002080B487B0C8
:1048A00000AF786000233B617B681A6B7B689B6A72
:1048B000D31A7A689268C2F31202934209D97B68CC
:1048C0009B6A7A689268C2F312021A447B689A6201
:1048D00003E07B681A6B7B689A627B681B7803F045
:1048E0000F03DBB2002B18D107F110037B617A694B
:1048F0009378012161F3C40393707A69D37843F00C
:104900006003D3707B681B6B03F07F03D9B27A69B5
:10491000137861F30603137032E07B689B6A002B07
:1049200009D13B696FF312033B617B8A012262F379
:10493000CC037B8224E07B689A6A7B68DB6AD31AAB
:104940007A685268C2F3C622D2B21344013B7A6835
:104950005268C2F3C622D2B2B3FBF2F3C3F3090327
:104960009AB27B8A62F3CC037B827B689A6A7B680B
:10497000DB6AD31AC3F312023B6962F312033B6191
:10498000224B1B685B7B002B0DD17B68596A7B68CF
:104990001B78C3F30303DBB21D4A70339B0013443F
:1049A0005B680A465A617B681B78C3F30303DBB27A
:1049B000174A70339B0013445B683A691A617B683D
:1049C0001B78C3F30303DBB2114A70339B0013441B
:1049D0005B681B68FB60FB7B43F00403FB73FB7BA2
:1049E00043F08003FB737B681B78C3F30303DBB2E4
:1049F000074A70339B0013445B68FA681A6000BF73
:104A00001C37BD465DF8047B704700BF30110020A5
:104A1000280F002080B485B000AF78600023FB60D1
:104A20007B681B78C3F30303DBB25E4A6A3352F838
:104A300023301B68BB607B681A6B7B689B6AD31A48
:104A40007A689268C2F31202934204D27B681A6BAE
:104A50007B689A6208E07B689B6A7A689268C2F316
:104A600012021A447B689A627B689B6A002B09D108
:104A7000FB686FF31203FB60FB89012262F3CC0336
:104A8000FB816BE07B681B7803F00F03DBB2002B2C
:104A900010D1FB89012262F3CC03FB817B689A6A07
:104AA0007B68DB6AD31AC3F31202FB6862F312035A
:104AB000FB602AE07B689A6A7B68DB6AD31AC3F3DF
:104AC0001202FB6862F31203FB607B689B6A9AB276
:104AD0007B68DB6A9BB2D31A9BB21A467B685B6821
:104AE000C3F3C623DBB29BB2013B9BB213447A688B
:104AF0005268C2F3C622D2B293FBF2F3C3F30903A6
:104B00009AB2FB8962F3CC03FB81274B1B685B7B6A
:104B1000002B0CD17B68596A7B681B78C3F30303B5
:104B2000DBB2204A6A3352F823300A465A611E4BE0
:104B30001B685B7B012B11D11A4BD3F8A431596B45
:104B40007B681B78C3F30303DBB21A46012303FA25
:104B500002F2144BD3F8A4310A435A637B681B78E2
:104B6000C3F30303DBB20F4A6A3352F82330FA6807
:104B70001A61FB7A43F08003FB72FB7A43F0040373
:104B8000FB727B681B78C3F30303DBB2054A6A330D
:104B900052F82330BA681A6000BF1437BD465DF87A
:104BA000047B7047280F00203011002080B588B0AA
:104BB00000AF7860504BD3F8A4315B687B613B7DDC
:104BC00043F001033B754C4BD3F8A4317A695A602A
:104BD0000023FB611AE0484AFB6970339B001344D1
:104BE0005B681B68BB61FB7E43F00803FB76BB7E02
:104BF0006FF34513BB76404AFB6970339B00134447
:104C00005B68BA691A60FB690133FB61FB69062BBB
:104C1000E1D9394BD3F8A03140225A6200233B61DD
:104C200010237B8240233B82334BD3F8A0313A6977
:104C30009A620123FB6111E0FB6904339B019A082E
:104C40002D4BD3F8A011FB69013B42F48012403395
:104C50009B000B445A60FB690133FB61FB69062B27
:104C6000EAD91020FFF750FD0020FFF74DFDFFF7B8
:104C70008BFD0023FB603B7B43F001033B73BB7B5D
:104C800043F00103BB731C4BD3F8A431FA68DA611B
:104C90000F2000F0F9FB0F2000F00EFC164BD3F8AC
:104CA000A4311B68BB603B896FF30A133B81124B35
:104CB000D3F8A431BA681A607B685B7B012B04D1FE
:104CC0000D4BD3F8A43100225A630B4A53686FF39B
:104CD00004135360084A53686FF3C3035360064BD1
:104CE000D3F8003204209847042000F021FB00BFD5
:104CF0002037BD4680BD00BF280F002080B582B0A0
:104D000000AF0F4BD3F8A0315B687B603B7903F0B9
:104D10000403DBB2002B0BD0094A92F8FE316FF38B
:104D2000820382F8FE31064BD3F800320120984707
:104D30007B68184600F062FB00BF0837BD4680BDA7
:104D4000280F002080B582B000AF1B4BD3F8A831EC
:104D50001B687B60BB886FF30A03BB80164BD3F8DC
:104D6000A8317A681A60144A92F8FE3143F00103C0
:104D700082F8FE31104A92F8FE3143F0040382F8C3
:104D8000FE310D4BD3F80032022098470A4BD3F87E
:104D9000A031DB683B607B78092262F385037B707E
:104DA000054BD3F8A0313A68DA600B2000F0C0FA66
:104DB00000BF0837BD4680BD280F002080B58CB0ED
:104DC00000AF7860694BD3F8A4319B69FB61674BF6
:104DD000D3F8A431DB69BB61644BD3F8A4315B69C0
:104DE0007B61FA8B7B8B1340BB85002387F82F30C8
:104DF0000023FB60AAE0BA8D97F82F3042FA03F344
:104E00007B857B8D03F001033B853B8D002B00F000
:104E1000988097F82F30342202FB03F3534A13444F
:104E20007B6297F82F30514A70339B0013445B68C4
:104E30009A687B6913403B617B685B7B002B08D1E0
:104E400097F82F30494A70339B0013445B681B6905
:104E5000FB603B7C03F00803DBB2002B2FD07A6AA7
:104E600013796FF3451313717B685B7B002B0AD1B9
:104E700007F10C03DB78C3F34113DBB2C3F1030387
:104E8000DA007B6A1A617B685B7B012B06D17B6A47
:104E90001A697B6ADB6A1A447B6A1A617A6A536808
:104EA0006FF304135360314BD3F804320021002018
:104EB000984797F82F301946082000F0CDFA3B7C30
:104EC00003F00103DBB2002B34D07B685B7B002B4B
:104ED00015D17B6A9A6A7B6ADB6AD31AFA68C2F3D5
:104EE00012029B1A3B627B6ADA6A3B6A1A447B6A4B
:104EF000DA627B6A5A6A3B6A1A447B6A5A627B6A44
:104F00001A6B7B6A9B6A9A4211D17B6ADA6A7B6A66
:104F10001A617A6A53686FF304135360134BD3F822
:104F2000043297F82F2001211046984702E0786A52
:104F3000FFF7B4FC3B6997F82F201146184600F0A4
:104F40008BFA97F82F30013387F82F30BA8D97F806
:104F50002F3042FA03F3002B7FF44DAF0D2000F009
:104F6000E7F900BF3037BD4680BD00BF280F0020E5
:104F700080B58CB000AF78606B4BD3F8A4319B69DF
:104F80007B61694BD3F8A4311B693B610023BB6093
:104F9000BB8ABB85002387F82F30B6E0BA8D97F81F
:104FA0002F3042FA03F37B857B8D03F001033B85B1
:104FB0003B8D002B00F0A48097F82F30342202FBA9
:104FC00003F3594A13447B6297F82F30564A6A33E9
:104FD00052F823309B683B62534BD3F8A4315B6B90
:104FE0007A6A1278C2F30302D2B2D340DB0103F033
:104FF00080023B691A433B6A1340FB607B685B7B22
:10500000002B07D197F82F30474A6A3352F82330E4
:105010001B69BB607B685B7B012B15D13B7B23F05D
:105020007F03DBB2002B0FD0786AFFF71BFBF86120
:105030007B6ADA6AFB691A447B6ADA627B6A5A6ABB
:10504000FB691A447B6A5A623B7B03F00103DBB2C3
:10505000002B4ED07B685B7B002B1DD17A8941F6FB
:10506000F87313409BB2002B16D1BB68C3F3120335
:10507000002B11D17B6A9A6A7B6ADB6AD31ABB6107
:105080007B6ADA6ABB691A447B6ADA627B6A5A6AAB
:10509000BB691A447B6A5A627B6A1A6B7B6A9B6A99
:1050A0009A4223D17A6A53686FF3C30353607B68D3
:1050B0005B7B012B0ED11C4BD3F8A431596B97F8B5
:1050C0002F30012202FA03F3DA43174BD3F8A4314D
:1050D0000A405A63144BD3F8043297F82F2062F039
:1050E0007F02D2B202211046984702E0786AFFF7A9
:1050F00091FCFB6897F82F201146184600F094F9B0
:1051000097F82F30013387F82F30BA8D97F82F306A
:1051100042FA03F3002B7FF441AF0E2000F008F9B0
:1051200000BF3037BD4680BD280F002080B582B05B
:1051300000AF1E4BD3F8A0311B6A7B60BB79C3F371
:105140004303DBB2013B052B2AD801A252F823F01E
:10515000A151000869510008A1510008A15100089F
:10516000A1510008855100083B79C3F30303DBB26A
:105170001A46BB88C3F30A139BB219461046FFF7C1
:10518000FDF90EE03B79C3F30303DBB21A46BB889B
:10519000C3F30A139BB219461046FFF7EFF900E07C
:1051A00000BF00BF0837BD4680BD00BF280F0020EC
:1051B00080B584B000AF7860504BD3F8A0319B69C4
:1051C000FB604E4BD3F8A0315A69FB681340BB60BB
:1051D0003B7A03F00803DBB2002B07D0474BD3F830
:1051E000003209209847092000F0A2F87B685B7B19
:1051F000012B19D13B7A03F01003DBB2002B13D043
:105200003B7B6FF304133B733C4BD3F8A031FA683C
:105210009A61FFF78BFF3B7B43F010033B73374BE7
:10522000D3F8A031FA689A617B7A03F00403DBB209
:10523000002B02D00A2000F07BF87B7A03F00803F1
:10524000DBB2002B07D02D4BD3F800320620984755
:10525000062000F06DF8FB7A23F07F03DBB2002B11
:1052600007D0264BD3F8003208209847082000F0DA
:105270005FF8FB7A03F04003DBB2002B0ED01F4A2D
:1052800092F8FE3143F0040382F8FE311B4BD3F851
:10529000003200209847002000F04AF87B7A03F0A3
:1052A0001003DBB2002B02D07868FFF77FFC7B7A1B
:1052B00003F02003DBB2002B01D0FFF743FDBB7AE4
:1052C00003F00403DBB2002B02D07868FFF750FE36
:1052D000BB7A03F00803DBB2002B02D07868FFF73B
:1052E0006DFD3B7A03F00403DBB2002B01D0FFF726
:1052F00005FD00BF1037BD4680BD00BF280F002050
:1053000080B500AF0348FCF72DF9FCF711FD00BF95
:1053100080BD00BF8000002080B500AF0348FCF7CF
:1053200003F9FCF713FD00BF80BD00BF8000002023
:1053300080B485B000AF0346FB710023FB60FB79AE
:105340000D2B4CD801A252F823F000BF8553000862
:10535000DF530008DF530008DF5300088F530008B5
:10536000DF53000899530008A3530008AD53000809
:10537000B7530008C1530008CB530008DF5300089F
:10538000D5530008FB7B43F04003FB7328E07B7B95
:1053900043F010037B7323E07B7B43F008037B73B4
:1053A0001EE0FB7B43F08003FB7319E0FB7B43F0C3
:1053B0008003FB7314E03B7B43F008033B730FE077
:1053C0007B7B43F004037B730AE07B7B43F0200389
:1053D0007B7305E0BB7B43F00803BB7300E000BFB9
:1053E000054BD3F8A031FA685A6100BF1437BD46A7
:1053F0005DF8047B704700BF280F002080B485B0A3
:1054000000AF78600023FB607B68FB60054BD3F83E
:10541000A031FA685A6000BF1437BD465DF8047BBE
:10542000704700BF280F002080B485B000AF7860BF
:105430000B46FB707B68FB60FB78064A6A3352F8C8
:105440002330FA689A6000BF1437BD465DF8047BCC
:10545000704700BF280F002080B485B000AF78608F
:105460000B46FB707B68FB60FB78064A70339B0041
:1054700013445B68FA689A6000BF1437BD465DF854
:10548000047B7047280F002080B485B000AF78609F
:105490007B68FB60074BD3F8A4315969FA68054B68
:1054A000D3F8A4310A435A6100BF1437BD465DF8F2
:1054B000047B7047280F002080B485B000AF78606F
:1054C0007B68FB60074BD3F8A4311969FA68054B78
:1054D000D3F8A4310A431A6100BF1437BD465DF802
:1054E000047B7047280F002080B483B000AF0023F6
:1054F0007B603B7943F004033B713B7943F0080345
:105500003B713B7943F002033B713B7943F001036C
:105510003B713B796FF345133B717B7943F001039A
:105520007B713B7943F010033B713B7943F080037F
:105530003B713B7943F040033B717B686FF35F2322
:105540007B607B6818460C37BD465DF8047B70476E
:1055500080B58AB000AF7860FFF7D2FE874A7B68DB
:10556000136000237B620CE0854A7B6A402142F88D
:105570002310844A7B6A402142F823107B6A01335E
:105580007B627B6A062BEFD94FF4027200217E48C2
:1055900001F0DEF97B685B687B4AC2F800327B6809
:1055A0009B68794AC2F804327B681B683B627B685F
:1055B0001B68754AC2F8A0313B6A03F50063724A62
:1055C000C2F8A43100237B620CE07B6A48335B01A4
:1055D0003A6A1A446C497B6A6A3341F823207B6A31
:1055E00001337B627B6A062BEFD900237B620DE0DF
:1055F0007B6A58335B013A6A1A4463497B6A7033A9
:105600009B000B445A607B6A01337B627B6A062BEA
:10561000EED900237B620CE07B6A01331B033A6AFC
:105620001A4459497B6A783341F823207B6A013355
:105630007B627B6A062BEFD9534BD3F8A0319B6872
:10564000FB613B7F43F001033B773B7F43F08003EB
:105650003B777B685B7B002B04D13B7F43F02003CF
:105660003B7703E03B7F6FF345133B77464BD3F823
:10567000A031FA699A60444BD3F8A031DB68BB6172
:10568000FB7E43F04003FB767B7E43F001037B7699
:105690003D4BD3F8A031BA69DA603B4BD3F8A43163
:1056A0001B687B613B7D43F003033B75BB7D6FF360
:1056B000C713BB75344BD3F8A4317A691A60324BE7
:1056C000D3F8A4315B683B613B7C43F002033B743D
:1056D0002D4BD3F8A4313A695A601020FFF714F823
:1056E000FFF752F8284BD3F8A03100229A61264BDD
:1056F000D3F8A0314FF0FF325A610023FB603B7BAF
:1057000043F002033B733B7B43F004033B73FB7B9F
:1057100043F04003FB737B7B43F010037B737B7B85
:1057200043F020037B737B7B43F004037B737B7B21
:1057300043F008037B73FB7B43F08003FB733B7BED
:1057400043F008033B737B685B7B012B03D13B7BFE
:1057500043F010033B73BB7B43F00803BB73BB7B7D
:1057600043F00403BB73084BD3F8A031FA689A6185
:10577000002318462837BD4680BD00BF30110020E9
:10578000F00E00200C0F0020280F002080B582B002
:1057900000AF0C4BD3F8A4315B687B603B7943F0DE
:1057A00002033B71074BD3F8A4317A685A604FF477
:1057B00002720021034801F0CBF800231846083795
:1057C000BD4680BD280F002080B483B000AF0A4BD7
:1057D000D3F8A4315B687B603B796FF341033B7185
:1057E000054BD3F8A4317A685A60002318460C3769
:1057F000BD465DF8047B7047280F002080B483B05D
:1058000000AF0A4BD3F8A4315B687B603B7943F06F
:1058100002033B71054BD3F8A4317A685A60002328
:1058200018460C37BD465DF8047B7047280F0020F2
:1058300080B584B000AF78600023FB603B7B012221
:1058400062F3C4033B73124B93F8FE31C3F30003BE
:10585000DAB23B7B62F341033B737868FEF75AFE92
:10586000034603F00103DAB23B7B62F382033B732E
:10587000074B93F8FE31C3F38003DAB23B7B62F34C
:1058800000033B73FB6818461037BD4680BD00BF60
:10589000280F002080B584B000AF03463960FB714B
:1058A000FB7903F00F03342202FB03F31A4A13447B
:1058B000BB60BB685B68C3F30013DBB2002B06D18F
:1058C000BB681B7903F00403DBB2002B02D1012378
:1058D000FB731CE0BB685B693A689A4202D9BB68FB
:1058E0005B693B60BB683A681A63BB680022DA6296
:1058F000BB6800229A62BB68DA68BB685A62BB6800
:1059000000221A61B868FEF7C9FF0023FB73FB7B16
:1059100018461037BD4680BD280F002080B586B0E0
:1059200000AF0346B9607A60FB73FB7B342202FB55
:1059300003F3174A13447B617B691B697A689A42B7
:1059400002D97B691B697B607B69DA687B699B692B
:1059500013447A681946B86800F060FF7B691A69D9
:105960007B68D21A7B691A617B691B69002B06D0A0
:105970007B699A697B681A447B699A6102E07B695A
:1059800000229A617B6818461837BD4680BD00BF6B
:10599000280F002080B586B000AF0346B9607A605A
:1059A000FB73FB7B03F00F03342202FB03F3214A5A
:1059B00013443B613B691B7903F00403DBB2002B0A
:1059C00002D101237B6130E03B695B68C3F3C00314
:1059D000DBB2012B02D100237B6126E03B691B6A0D
:1059E0007A689A4202D93B691B6A7B603B69DB6932
:1059F0007A68B968184600F011FF3B69DA693B69BB
:105A00005A623B697A681A633B6900229A623B6971
:105A10000022DA623A69536843F008035360386938
:105A2000FEF7F8FF3B691B6B7B617B6918461837F3
:105A3000BD4680BD280F002080B485B000AF03466E
:105A40000A46FB711346BB710D4BD3F8A4311B689A
:105A5000FB60BB79002B0CD1FB7903F07F03DAB23A
:105A6000BB8962F30A13BB81054BD3F8A431FA68F2
:105A70001A60002318461437BD465DF8047B704752
:105A8000280F002080B485B000AF03460A46FB71A2
:105A90001346BB71FB7903F00F03342202FB03F3BF
:105AA0004A4A1344FB60BB79002B40D097F907307A
:105AB000002B1ADAFB681B78C3F30303DBB2434AFB
:105AC0006A3352F823301B68BB60BB7A43F0200373
:105AD000BB72FB681B78C3F30303DBB23B4A6A3338
